{
  "_format": "hh-sol-artifact-1",
  "contractName": "FarmCert",
  "sourceName": "contracts/FarmCert.sol",
  "abi": [
    {
      "anonymous": false,
      "inputs": [
        {
          "indexed": false,
          "internalType": "bytes32",
          "name": "hash",
          "type": "bytes32"
        }
      ],
      "name": "Certified",
      "type": "event"
    },
    {
      "inputs": [
        {
          "internalType": "bytes32",
          "name": "",
          "type": "bytes32"
        }
      ],
      "name": "certified",
      "outputs": [
        {
          "internalType": "bool",
          "name": "",
          "type": "bool"
        }
      ],
      "stateMutability": "view",
      "type": "function"
    },
    {
      "inputs": [
        {
          "internalType": "bytes32",
          "name": "hash",
          "type": "bytes32"
        }
      ],
      "name": "certifyPlant",
      "outputs": [],
      "stateMutability": "nonpayable",
      "type": "function"
    }
  ],
  "bytecode": "0x608060405234801561001057600080fd5b5061020a806100206000396000f3fe608060405234801561001057600080fd5b50600436106100365760003560e01c806318e587011461003b578063b82bc22c14610057575b600080fd5b61005560048036038101906100509190610147565b610087565b005b610071600480360381019061006c9190610147565b6100ec565b60405161007e919061018f565b60405180910390f35b600160008083815260200190815260200160002060006101000a81548160ff0219169083151502179055507f2b099e954c9fc078946fbffc6d5543298cb08acaf42ede4cf13c067efe9d1f6c816040516100e191906101b9565b60405180910390a150565b60006020528060005260406000206000915054906101000a900460ff1681565b600080fd5b6000819050919050565b61012481610111565b811461012f57600080fd5b50565b6000813590506101418161011b565b92915050565b60006020828403121561015d5761015c61010c565b5b600061016b84828501610132565b91505092915050565b60008115159050919050565b61018981610174565b82525050565b60006020820190506101a46000830184610180565b92915050565b6101b381610111565b82525050565b60006020820190506101ce60008301846101aa565b9291505056fea26469706673582212202330585148f0dda4164895f9e79712114680fe8805423ff0ca74394dfcc3890164736f6c63430008130033",
  "linkReferences": {},
  "deployedLinkReferences": {}
}